{
    "contractName": "Gallery",
    "abi": [
        {
            "inputs": [
                {
                    "internalType": "address",
                    "name": "_feeDestination",
                    "type": "address"
                },
                {
                    "internalType": "uint256",
                    "name": "_protocolFeePercent",
                    "type": "uint256"
                },
                {
                    "internalType": "uint256",
                    "name": "_artistFeePercent",
                    "type": "uint256"
                },
                {
                    "internalType": "string",
                    "name": "_uri",
                    "type": "string"
                }
            ],
            "stateMutability": "nonpayable",
            "type": "constructor"
        },
        {
            "inputs": [
                {
                    "internalType": "address",
                    "name": "sender",
                    "type": "address"
                },
                {
                    "internalType": "uint256",
                    "name": "balance",
                    "type": "uint256"
                },
                {
                    "internalType": "uint256",
                    "name": "needed",
                    "type": "uint256"
                },
                {
                    "internalType": "uint256",
                    "name": "tokenId",
                    "type": "uint256"
                }
            ],
            "name": "ERC1155InsufficientBalance",
            "type": "error"
        },
        {
            "inputs": [
                {
                    "internalType": "address",
                    "name": "approver",
                    "type": "address"
                }
            ],
            "name": "ERC1155InvalidApprover",
            "type": "error"
        },
        {
            "inputs": [
                {
                    "internalType": "uint256",
                    "name": "idsLength",
                    "type": "uint256"
                },
                {
                    "internalType": "uint256",
                    "name": "valuesLength",
                    "type": "uint256"
                }
            ],
            "name": "ERC1155InvalidArrayLength",
            "type": "error"
        },
        {
            "inputs": [
                {
                    "internalType": "address",
                    "name": "operator",
                    "type": "address"
                }
            ],
            "name": "ERC1155InvalidOperator",
            "type": "error"
        },
        {
            "inputs": [
                {
                    "internalType": "address",
                    "name": "receiver",
                    "type": "address"
                }
            ],
            "name": "ERC1155InvalidReceiver",
            "type": "error"
        },
        {
            "inputs": [
                {
                    "internalType": "address",
                    "name": "sender",
                    "type": "address"
                }
            ],
            "name": "ERC1155InvalidSender",
            "type": "error"
        },
        {
            "inputs": [
                {
                    "internalType": "address",
                    "name": "operator",
                    "type": "address"
                },
                {
                    "internalType": "address",
                    "name": "owner",
                    "type": "address"
                }
            ],
            "name": "ERC1155MissingApprovalForAll",
            "type": "error"
        },
        {
            "inputs": [
                {
                    "internalType": "address",
                    "name": "owner",
                    "type": "address"
                }
            ],
            "name": "OwnableInvalidOwner",
            "type": "error"
        },
        {
            "inputs": [
                {
                    "internalType": "address",
                    "name": "account",
                    "type": "address"
                }
            ],
            "name": "OwnableUnauthorizedAccount",
            "type": "error"
        },
        {
            "anonymous": false,
            "inputs": [
                {
                    "indexed": true,
                    "internalType": "address",
                    "name": "account",
                    "type": "address"
                },
                {
                    "indexed": true,
                    "internalType": "address",
                    "name": "operator",
                    "type": "address"
                },
                {
                    "indexed": false,
                    "internalType": "bool",
                    "name": "approved",
                    "type": "bool"
                }
            ],
            "name": "ApprovalForAll",
            "type": "event"
        },
        {
            "anonymous": false,
            "inputs": [
                {
                    "indexed": false,
                    "internalType": "uint256",
                    "name": "tokenId",
                    "type": "uint256"
                },
                {
                    "indexed": false,
                    "internalType": "string",
                    "name": "metadataURL",
                    "type": "string"
                }
            ],
            "name": "ArtworkMinted",
            "type": "event"
        },
        {
            "anonymous": false,
            "inputs": [
                {
                    "indexed": true,
                    "internalType": "address",
                    "name": "previousOwner",
                    "type": "address"
                },
                {
                    "indexed": true,
                    "internalType": "address",
                    "name": "newOwner",
                    "type": "address"
                }
            ],
            "name": "OwnershipTransferred",
            "type": "event"
        },
        {
            "anonymous": false,
            "inputs": [
                {
                    "indexed": false,
                    "internalType": "address",
                    "name": "trader",
                    "type": "address"
                },
                {
                    "indexed": false,
                    "internalType": "uint256",
                    "name": "tokenId",
                    "type": "uint256"
                },
                {
                    "indexed": false,
                    "internalType": "bool",
                    "name": "isBuy",
                    "type": "bool"
                },
                {
                    "indexed": false,
                    "internalType": "uint256",
                    "name": "ethAmount",
                    "type": "uint256"
                },
                {
                    "indexed": false,
                    "internalType": "uint256",
                    "name": "protocolEthAmount",
                    "type": "uint256"
                },
                {
                    "indexed": false,
                    "internalType": "uint256",
                    "name": "artistEthAmount",
                    "type": "uint256"
                },
                {
                    "indexed": false,
                    "internalType": "uint256",
                    "name": "supply",
                    "type": "uint256"
                }
            ],
            "name": "Trade",
            "type": "event"
        },
        {
            "anonymous": false,
            "inputs": [
                {
                    "indexed": true,
                    "internalType": "address",
                    "name": "operator",
                    "type": "address"
                },
                {
                    "indexed": true,
                    "internalType": "address",
                    "name": "from",
                    "type": "address"
                },
                {
                    "indexed": true,
                    "internalType": "address",
                    "name": "to",
                    "type": "address"
                },
                {
                    "indexed": false,
                    "internalType": "uint256[]",
                    "name": "ids",
                    "type": "uint256[]"
                },
                {
                    "indexed": false,
                    "internalType": "uint256[]",
                    "name": "values",
                    "type": "uint256[]"
                }
            ],
            "name": "TransferBatch",
            "type": "event"
        },
        {
            "anonymous": false,
            "inputs": [
                {
                    "indexed": true,
                    "internalType": "address",
                    "name": "operator",
                    "type": "address"
                },
                {
                    "indexed": true,
                    "internalType": "address",
                    "name": "from",
                    "type": "address"
                },
                {
                    "indexed": true,
                    "internalType": "address",
                    "name": "to",
                    "type": "address"
                },
                {
                    "indexed": false,
                    "internalType": "uint256",
                    "name": "id",
                    "type": "uint256"
                },
                {
                    "indexed": false,
                    "internalType": "uint256",
                    "name": "value",
                    "type": "uint256"
                }
            ],
            "name": "TransferSingle",
            "type": "event"
        },
        {
            "anonymous": false,
            "inputs": [
                {
                    "indexed": false,
                    "internalType": "string",
                    "name": "value",
                    "type": "string"
                },
                {
                    "indexed": true,
                    "internalType": "uint256",
                    "name": "id",
                    "type": "uint256"
                }
            ],
            "name": "URI",
            "type": "event"
        },
        {
            "inputs": [],
            "name": "MAX_CHARACTERS",
            "outputs": [
                {
                    "internalType": "uint256",
                    "name": "",
                    "type": "uint256"
                }
            ],
            "stateMutability": "view",
            "type": "function"
        },
        {
            "inputs": [
                {
                    "internalType": "uint256",
                    "name": "",
                    "type": "uint256"
                }
            ],
            "name": "artistEarnedFees",
            "outputs": [
                {
                    "internalType": "uint256",
                    "name": "",
                    "type": "uint256"
                }
            ],
            "stateMutability": "view",
            "type": "function"
        },
        {
            "inputs": [],
            "name": "artistFeePercent",
            "outputs": [
                {
                    "internalType": "uint256",
                    "name": "",
                    "type": "uint256"
                }
            ],
            "stateMutability": "view",
            "type": "function"
        },
        {
            "inputs": [
                {
                    "internalType": "uint256",
                    "name": "",
                    "type": "uint256"
                }
            ],
            "name": "artworkOwners",
            "outputs": [
                {
                    "internalType": "address",
                    "name": "",
                    "type": "address"
                }
            ],
            "stateMutability": "view",
            "type": "function"
        },
        {
            "inputs": [
                {
                    "internalType": "uint256",
                    "name": "",
                    "type": "uint256"
                }
            ],
            "name": "artworkPrompts",
            "outputs": [
                {
                    "internalType": "string",
                    "name": "",
                    "type": "string"
                }
            ],
            "stateMutability": "view",
            "type": "function"
        },
        {
            "inputs": [
                {
                    "internalType": "uint256",
                    "name": "",
                    "type": "uint256"
                }
            ],
            "name": "artworks",
            "outputs": [
                {
                    "internalType": "string",
                    "name": "metadataURL",
                    "type": "string"
                },
                {
                    "internalType": "uint256",
                    "name": "supply",
                    "type": "uint256"
                }
            ],
            "stateMutability": "view",
            "type": "function"
        },
        {
            "inputs": [
                {
                    "internalType": "address",
                    "name": "account",
                    "type": "address"
                },
                {
                    "internalType": "uint256",
                    "name": "id",
                    "type": "uint256"
                }
            ],
            "name": "balanceOf",
            "outputs": [
                {
                    "internalType": "uint256",
                    "name": "",
                    "type": "uint256"
                }
            ],
            "stateMutability": "view",
            "type": "function"
        },
        {
            "inputs": [
                {
                    "internalType": "address[]",
                    "name": "accounts",
                    "type": "address[]"
                },
                {
                    "internalType": "uint256[]",
                    "name": "ids",
                    "type": "uint256[]"
                }
            ],
            "name": "balanceOfBatch",
            "outputs": [
                {
                    "internalType": "uint256[]",
                    "name": "",
                    "type": "uint256[]"
                }
            ],
            "stateMutability": "view",
            "type": "function"
        },
        {
            "inputs": [
                {
                    "internalType": "uint256",
                    "name": "tokenId",
                    "type": "uint256"
                },
                {
                    "internalType": "uint256",
                    "name": "amount",
                    "type": "uint256"
                }
            ],
            "name": "buyToken",
            "outputs": [],
            "stateMutability": "payable",
            "type": "function"
        },
        {
            "inputs": [],
            "name": "feePrecision",
            "outputs": [
                {
                    "internalType": "uint256",
                    "name": "",
                    "type": "uint256"
                }
            ],
            "stateMutability": "view",
            "type": "function"
        },
        {
            "inputs": [
                {
                    "internalType": "uint256",
                    "name": "tokenId",
                    "type": "uint256"
                }
            ],
            "name": "getArtistEarnedFees",
            "outputs": [
                {
                    "internalType": "uint256",
                    "name": "",
                    "type": "uint256"
                }
            ],
            "stateMutability": "view",
            "type": "function"
        },
        {
            "inputs": [
                {
                    "internalType": "uint256",
                    "name": "tokenId",
                    "type": "uint256"
                },
                {
                    "internalType": "uint256",
                    "name": "amount",
                    "type": "uint256"
                }
            ],
            "name": "getBuyPrice",
            "outputs": [
                {
                    "internalType": "uint256",
                    "name": "",
                    "type": "uint256"
                }
            ],
            "stateMutability": "view",
            "type": "function"
        },
        {
            "inputs": [
                {
                    "internalType": "uint256",
                    "name": "tokenId",
                    "type": "uint256"
                },
                {
                    "internalType": "uint256",
                    "name": "amount",
                    "type": "uint256"
                }
            ],
            "name": "getBuyPriceAfterFee",
            "outputs": [
                {
                    "internalType": "uint256",
                    "name": "",
                    "type": "uint256"
                }
            ],
            "stateMutability": "view",
            "type": "function"
        },
        {
            "inputs": [
                {
                    "internalType": "uint256",
                    "name": "supply",
                    "type": "uint256"
                },
                {
                    "internalType": "uint256",
                    "name": "amount",
                    "type": "uint256"
                }
            ],
            "name": "getPrice",
            "outputs": [
                {
                    "internalType": "uint256",
                    "name": "",
                    "type": "uint256"
                }
            ],
            "stateMutability": "pure",
            "type": "function"
        },
        {
            "inputs": [],
            "name": "getProtocolEarnedFees",
            "outputs": [
                {
                    "internalType": "uint256",
                    "name": "",
                    "type": "uint256"
                }
            ],
            "stateMutability": "view",
            "type": "function"
        },
        {
            "inputs": [
                {
                    "internalType": "uint256",
                    "name": "tokenId",
                    "type": "uint256"
                },
                {
                    "internalType": "uint256",
                    "name": "amount",
                    "type": "uint256"
                }
            ],
            "name": "getSellPrice",
            "outputs": [
                {
                    "internalType": "uint256",
                    "name": "",
                    "type": "uint256"
                }
            ],
            "stateMutability": "view",
            "type": "function"
        },
        {
            "inputs": [
                {
                    "internalType": "uint256",
                    "name": "tokenId",
                    "type": "uint256"
                },
                {
                    "internalType": "uint256",
                    "name": "amount",
                    "type": "uint256"
                }
            ],
            "name": "getSellPriceAfterFee",
            "outputs": [
                {
                    "internalType": "uint256",
                    "name": "",
                    "type": "uint256"
                }
            ],
            "stateMutability": "view",
            "type": "function"
        },
        {
            "inputs": [],
            "name": "getTokenIdCounter",
            "outputs": [
                {
                    "internalType": "uint256",
                    "name": "",
                    "type": "uint256"
                }
            ],
            "stateMutability": "view",
            "type": "function"
        },
        {
            "inputs": [
                {
                    "internalType": "address",
                    "name": "creator",
                    "type": "address"
                }
            ],
            "name": "getTotalEarndFees",
            "outputs": [
                {
                    "internalType": "uint256",
                    "name": "",
                    "type": "uint256"
                }
            ],
            "stateMutability": "view",
            "type": "function"
        },
        {
            "inputs": [
                {
                    "internalType": "address",
                    "name": "user",
                    "type": "address"
                }
            ],
            "name": "getUserOwnCounts",
            "outputs": [
                {
                    "internalType": "uint256",
                    "name": "",
                    "type": "uint256"
                }
            ],
            "stateMutability": "view",
            "type": "function"
        },
        {
            "inputs": [
                {
                    "internalType": "address",
                    "name": "account",
                    "type": "address"
                },
                {
                    "internalType": "address",
                    "name": "operator",
                    "type": "address"
                }
            ],
            "name": "isApprovedForAll",
            "outputs": [
                {
                    "internalType": "bool",
                    "name": "",
                    "type": "bool"
                }
            ],
            "stateMutability": "view",
            "type": "function"
        },
        {
            "inputs": [
                {
                    "internalType": "string",
                    "name": "text",
                    "type": "string"
                }
            ],
            "name": "mintArtwork",
            "outputs": [
                {
                    "internalType": "uint256",
                    "name": "",
                    "type": "uint256"
                }
            ],
            "stateMutability": "payable",
            "type": "function"
        },
        {
            "inputs": [],
            "name": "owner",
            "outputs": [
                {
                    "internalType": "address",
                    "name": "",
                    "type": "address"
                }
            ],
            "stateMutability": "view",
            "type": "function"
        },
        {
            "inputs": [
                {
                    "internalType": "address",
                    "name": "",
                    "type": "address"
                },
                {
                    "internalType": "uint256",
                    "name": "",
                    "type": "uint256"
                }
            ],
            "name": "ownerData",
            "outputs": [
                {
                    "internalType": "uint256",
                    "name": "",
                    "type": "uint256"
                }
            ],
            "stateMutability": "view",
            "type": "function"
        },
        {
            "inputs": [],
            "name": "protocolEarnedFees",
            "outputs": [
                {
                    "internalType": "uint256",
                    "name": "",
                    "type": "uint256"
                }
            ],
            "stateMutability": "view",
            "type": "function"
        },
        {
            "inputs": [],
            "name": "protocolFeeDestination",
            "outputs": [
                {
                    "internalType": "address",
                    "name": "",
                    "type": "address"
                }
            ],
            "stateMutability": "view",
            "type": "function"
        },
        {
            "inputs": [],
            "name": "protocolFeePercent",
            "outputs": [
                {
                    "internalType": "uint256",
                    "name": "",
                    "type": "uint256"
                }
            ],
            "stateMutability": "view",
            "type": "function"
        },
        {
            "inputs": [],
            "name": "renounceOwnership",
            "outputs": [],
            "stateMutability": "nonpayable",
            "type": "function"
        },
        {
            "inputs": [
                {
                    "internalType": "address",
                    "name": "from",
                    "type": "address"
                },
                {
                    "internalType": "address",
                    "name": "to",
                    "type": "address"
                },
                {
                    "internalType": "uint256[]",
                    "name": "ids",
                    "type": "uint256[]"
                },
                {
                    "internalType": "uint256[]",
                    "name": "values",
                    "type": "uint256[]"
                },
                {
                    "internalType": "bytes",
                    "name": "data",
                    "type": "bytes"
                }
            ],
            "name": "safeBatchTransferFrom",
            "outputs": [],
            "stateMutability": "nonpayable",
            "type": "function"
        },
        {
            "inputs": [
                {
                    "internalType": "address",
                    "name": "from",
                    "type": "address"
                },
                {
                    "internalType": "address",
                    "name": "to",
                    "type": "address"
                },
                {
                    "internalType": "uint256",
                    "name": "id",
                    "type": "uint256"
                },
                {
                    "internalType": "uint256",
                    "name": "value",
                    "type": "uint256"
                },
                {
                    "internalType": "bytes",
                    "name": "data",
                    "type": "bytes"
                }
            ],
            "name": "safeTransferFrom",
            "outputs": [],
            "stateMutability": "nonpayable",
            "type": "function"
        },
        {
            "inputs": [
                {
                    "internalType": "uint256",
                    "name": "tokenId",
                    "type": "uint256"
                },
                {
                    "internalType": "uint256",
                    "name": "amount",
                    "type": "uint256"
                }
            ],
            "name": "sellToken",
            "outputs": [],
            "stateMutability": "nonpayable",
            "type": "function"
        },
        {
            "inputs": [
                {
                    "internalType": "address",
                    "name": "operator",
                    "type": "address"
                },
                {
                    "internalType": "bool",
                    "name": "approved",
                    "type": "bool"
                }
            ],
            "name": "setApprovalForAll",
            "outputs": [],
            "stateMutability": "nonpayable",
            "type": "function"
        },
        {
            "inputs": [
                {
                    "internalType": "uint256",
                    "name": "_feePercent",
                    "type": "uint256"
                }
            ],
            "name": "setArtistFeePercent",
            "outputs": [],
            "stateMutability": "nonpayable",
            "type": "function"
        },
        {
            "inputs": [
                {
                    "internalType": "address",
                    "name": "_feeDestination",
                    "type": "address"
                }
            ],
            "name": "setFeeDestination",
            "outputs": [],
            "stateMutability": "nonpayable",
            "type": "function"
        },
        {
            "inputs": [
                {
                    "internalType": "uint256",
                    "name": "_feePercent",
                    "type": "uint256"
                }
            ],
            "name": "setProtocolFeePercent",
            "outputs": [],
            "stateMutability": "nonpayable",
            "type": "function"
        },
        {
            "inputs": [
                {
                    "internalType": "bytes4",
                    "name": "interfaceId",
                    "type": "bytes4"
                }
            ],
            "name": "supportsInterface",
            "outputs": [
                {
                    "internalType": "bool",
                    "name": "",
                    "type": "bool"
                }
            ],
            "stateMutability": "view",
            "type": "function"
        },
        {
            "inputs": [
                {
                    "internalType": "address",
                    "name": "",
                    "type": "address"
                }
            ],
            "name": "totalEarndFee",
            "outputs": [
                {
                    "internalType": "uint256",
                    "name": "",
                    "type": "uint256"
                }
            ],
            "stateMutability": "view",
            "type": "function"
        },
        {
            "inputs": [
                {
                    "internalType": "address",
                    "name": "newOwner",
                    "type": "address"
                }
            ],
            "name": "transferOwnership",
            "outputs": [],
            "stateMutability": "nonpayable",
            "type": "function"
        },
        {
            "inputs": [
                {
                    "internalType": "uint256",
                    "name": "",
                    "type": "uint256"
                }
            ],
            "name": "uri",
            "outputs": [
                {
                    "internalType": "string",
                    "name": "",
                    "type": "string"
                }
            ],
            "stateMutability": "view",
            "type": "function"
        }
    ],
    "bytecode": "60806040526103e86007555f6008553480156200001a575f80fd5b5060405162002abf38038062002abf8339810160408190526200003d916200011f565b8033806200006457604051631e4fbdf760e01b81525f600482015260240160405180910390fd5b6200006f81620000aa565b506200007b81620000f9565b5050600480546001600160a01b0319166001600160a01b03949094169390931790925560055560065562000374565b5f80546001600160a01b038381166001600160a01b0319831681178455604051919092169283917f8be0079c531659141344cd1fd0a4f28419497f9722a3daafe3b4186f6b6457e09190a35050565b6003620001078282620002ac565b5050565b634e487b7160e01b5f52604160045260245ffd5b5f805f806080858703121562000133575f80fd5b84516001600160a01b03811681146200014a575f80fd5b602086810151604088015160608901519397509095509350906001600160401b038082111562000178575f80fd5b818801915088601f8301126200018c575f80fd5b815181811115620001a157620001a16200010b565b604051601f8201601f19908116603f01168101908382118183101715620001cc57620001cc6200010b565b816040528281528b86848701011115620001e4575f80fd5b5f93505b82841015620002075784840186015181850187015292850192620001e8565b5f86848301015280965050505050505092959194509250565b600181811c908216806200023557607f821691505b6020821081036200025457634e487b7160e01b5f52602260045260245ffd5b50919050565b601f821115620002a7575f81815260208120601f850160051c81016020861015620002825750805b601f850160051c820191505b81811015620002a3578281556001016200028e565b5050505b505050565b81516001600160401b03811115620002c857620002c86200010b565b620002e081620002d9845462000220565b846200025a565b602080601f83116001811462000316575f8415620002fe5750858301515b5f19600386901b1c1916600185901b178555620002a3565b5f85815260208120601f198616915b82811015620003465788860151825594840194600190910190840162000325565b50858210156200036457878501515f19600388901b60f8161c191681555b5050505050600190811b01905550565b61273d80620003825f395ff3fe608060405260043610610227575f3560e01c80634e1273f411610129578063a4983421116100a8578063dbfd4b981161006d578063dbfd4b98146106ae578063e985e9c5146106c2578063f242432a146106e1578063f2fde38b14610700578063fbe532341461071f575f80fd5b8063a49834211461061d578063c157253d1461063c578063c72ee8b91461065b578063cd9c71211461067a578063d6e6eb9f14610699575f80fd5b80638660e48e116100ee5780638660e48e146105835780638da5cb5b146105985780639477d85d146105b45780639a087ac0146105d3578063a22cb465146105fe575f80fd5b80634e1273f4146104d15780635c60a3ea146104fd5780635cf4ee9114610531578063715018a6146105505780637b12f7f214610564575f80fd5b806321f92f3e116101b557806342ebf67e1161017a57806342ebf67e146103ef578063440bbf511461041a57806347c60b83146104395780634b6026731461046d5780634ce7957c1461049a575f80fd5b806321f92f3e1461036757806327829f101461037b5780632eb2c2d6146103a65780633564f600146103c557806335ff1e28146103da575f80fd5b80630a7b7be4116101fb5780630a7b7be4146102c05780630e89341c146102d35780631549ce7b146102ff5780631897bcf3146103335780631b37b15b14610352575f80fd5b8062fdd58e1461022b57806301ffc9a71461025d578063057466ea1461028c578063063a741f146102a1575b5f80fd5b348015610236575f80fd5b5061024a610245366004611e6f565b61073e565b6040519081526020015b60405180910390f35b348015610268575f80fd5b5061027c610277366004611eac565b610767565b6040519015158152602001610254565b61029f61029a366004611ec7565b6107b6565b005b3480156102ac575f80fd5b5061024a6102bb366004611ec7565b610a5a565b61024a6102ce366004611f81565b610ac3565b3480156102de575f80fd5b506102f26102ed366004611fce565b610d46565b6040516102549190612032565b34801561030a575f80fd5b5061024a610319366004612044565b6001600160a01b03165f908152600f602052604090205490565b34801561033e575f80fd5b5061029f61034d366004611ec7565b610dd8565b34801561035d575f80fd5b5061024a600d5481565b348015610372575f80fd5b50600d5461024a565b348015610386575f80fd5b5061024a610395366004612044565b600f6020525f908152604090205481565b3480156103b1575f80fd5b5061029f6103c0366004612106565b611077565b3480156103d0575f80fd5b5061024a60065481565b3480156103e5575f80fd5b5061024a60075481565b3480156103fa575f80fd5b5061024a610409366004611fce565b600e6020525f908152604090205481565b348015610425575f80fd5b506102f2610434366004611fce565b6110d6565b348015610444575f80fd5b5061024a610453366004612044565b6001600160a01b03165f908152600c602052604090205490565b348015610478575f80fd5b5061048c610487366004611fce565b61116d565b6040516102549291906121a9565b3480156104a5575f80fd5b506004546104b9906001600160a01b031681565b6040516001600160a01b039091168152602001610254565b3480156104dc575f80fd5b506104f06104eb3660046121ca565b61120e565b60405161025491906122bd565b348015610508575f80fd5b506104b9610517366004611fce565b600a6020525f90815260409020546001600160a01b031681565b34801561053c575f80fd5b5061024a61054b366004611ec7565b6112e1565b34801561055b575f80fd5b5061029f6113f3565b34801561056f575f80fd5b5061024a61057e366004611e6f565b611406565b34801561058e575f80fd5b5061024a61037881565b3480156105a3575f80fd5b505f546001600160a01b03166104b9565b3480156105bf575f80fd5b5061024a6105ce366004611ec7565b611431565b3480156105de575f80fd5b5061024a6105ed366004611fce565b5f908152600e602052604090205490565b348015610609575f80fd5b5061029f6106183660046122cf565b61145e565b348015610628575f80fd5b5061029f610637366004611fce565b61146d565b348015610647575f80fd5b5061024a610656366004611ec7565b61147a565b348015610666575f80fd5b5061029f610675366004611fce565b611495565b348015610685575f80fd5b5061024a610694366004611ec7565b6114a2565b3480156106a4575f80fd5b5061024a60055481565b3480156106b9575f80fd5b5060085461024a565b3480156106cd575f80fd5b5061027c6106dc366004612308565b611501565b3480156106ec575f80fd5b5061029f6106fb366004612339565b61152e565b34801561070b575f80fd5b5061029f61071a366004612044565b61158d565b34801561072a575f80fd5b5061029f610739366004612044565b6115ca565b5f8181526001602090815260408083206001600160a01b03861684529091529020545b92915050565b5f6001600160e01b03198216636cdb3d1360e11b148061079757506001600160e01b031982166303a24d0760e21b145b8061076157506301ffc9a760e01b6001600160e01b0319831614610761565b5f828152600960205260409020600101546108265760405162461bcd60e51b815260206004820152602560248201527f546f6b656e20737570706c792073686f756c6420626520677265617465722074604482015264068616e20360dc1b60648201526084015b60405180910390fd5b5f6108318383610a5a565b90508034101561089a5760405162461bcd60e51b815260206004820152602e60248201527f5061796d656e7420616d6f756e74206973206c657373207468616e207468652060448201526d726571756972656420707269636560901b606482015260840161081d565b5f600754600554836108ac91906123ad565b6108b691906123c4565b90505f600754600654846108ca91906123ad565b6108d491906123c4565b90506108f033868660405180602001604052805f8152506115f4565b5f85815260096020526040812060010180548692906109109084906123e3565b90915550505f858152600a60209081526040808320546001600160a01b03168352600f909152812080548392906109489084906123e3565b90915550505f858152600960205260409081902060019081015491517f12d0646903287d48eb117ac55a8bcc90d4357c4180221d5b33e83e73860440ec926109999233928a928991899189916123f6565b60405180910390a16004546040516001600160a01b039091169083156108fc029084905f818181858888f193505050501580156109d8573d5f803e3d5ffd5b5081600d5f8282546109ea91906123e3565b90915550505f858152600a60205260408082205490516001600160a01b039091169183156108fc02918491818181858888f19350505050158015610a30573d5f803e3d5ffd5b505f858152600e602052604081208054839290610a4e9084906123e3565b90915550505050505050565b5f80610a66848461147a565b90505f60075460055483610a7a91906123ad565b610a8491906123c4565b90505f60075460065484610a9891906123ad565b610aa291906123c4565b905080610aaf83856123e3565b610ab991906123e3565b9695505050505050565b5f80825111610b0b5760405162461bcd60e51b8152602060048201526014602482015273546578742063616e6e6f7420626520656d70747960601b604482015260640161081d565b61037882511115610b6f5760405162461bcd60e51b815260206004820152602860248201527f54657874206578636565647320746865206d6178696d756d2063686172616374604482015267195c881b1a5b5a5d60c21b606482015260840161081d565b3466038d7ea4c6800014610bc55760405162461bcd60e51b815260206004820152601860248201527f4d696e74696e672066656520697320302e303031204554480000000000000000604482015260640161081d565b60088054905f610bd483612431565b91905055505f610be560085461164f565b604051602001610bf59190612449565b6040516020818303038152906040529050610c29610c103390565b600854600160405180602001604052805f8152506115f4565b60408051808201825282815260016020808301919091526008545f90815260099091529190912081518190610c5e908261250a565b50602091820151600190910155600880545f908152600a90925260409182902080546001600160a01b031916331790555490517ff5a4f371068d117c96b700f6b96501872485343551b159c749b8fdc9971654d491610cbe9184906125c6565b60405180910390a15f80546040516001600160a01b03909116913480156108fc02929091818181858888f19350505050158015610cfd573d5f803e3d5ffd5b506008545f908152600b60205260409020610d18848261250a565b5050335f908152600c6020908152604082206008805482546001810184559285529290932001555492915050565b606060038054610d5590612488565b80601f0160208091040260200160405190810160405280929190818152602001828054610d8190612488565b8015610dcc5780601f10610da357610100808354040283529160200191610dcc565b820191905f5260205f20905b815481529060010190602001808311610daf57829003601f168201915b50505050509050919050565b5f82815260096020526040902060019081015411610e385760405162461bcd60e51b815260206004820152601a60248201527f43616e6e6f742073656c6c20746865206c61737420746f6b656e000000000000604482015260640161081d565b5f610e43338461073e565b11610e905760405162461bcd60e51b815260206004820152601960248201527f596f7520646f6e27742068617665207468697320746f6b656e00000000000000604482015260640161081d565b5f610e9b83836114a2565b90505f60075460055483610eaf91906123ad565b610eb991906123c4565b90505f60075460065484610ecd91906123ad565b610ed791906123c4565b9050610ee4338686611775565b5f8581526009602052604081206001018054869290610f049084906125de565b90915550505f858152600a60209081526040808320546001600160a01b03168352600f90915281208054839290610f3c9084906123e3565b90915550505f858152600960205260408082206001015490517f12d0646903287d48eb117ac55a8bcc90d4357c4180221d5b33e83e73860440ec92610f8b9233928a92918991899189916123f6565b60405180910390a16004546040516001600160a01b039091169083156108fc029084905f818181858888f19350505050158015610fca573d5f803e3d5ffd5b5081600d5f828254610fdc91906123e3565b90915550505f858152600a60205260408082205490516001600160a01b039091169183156108fc02918491818181858888f19350505050158015611022573d5f803e3d5ffd5b505f858152600e6020526040812080548392906110409084906123e3565b9091555050604051339084156108fc029085905f818181858888f1935050505015801561106f573d5f803e3d5ffd5b505050505050565b336001600160a01b038616811480159061109857506110968682611501565b155b156110c95760405163711bec9160e11b81526001600160a01b0380831660048301528716602482015260440161081d565b61106f86868686866117e2565b600b6020525f9081526040902080546110ee90612488565b80601f016020809104026020016040519081016040528092919081815260200182805461111a90612488565b80156111655780601f1061113c57610100808354040283529160200191611165565b820191905f5260205f20905b81548152906001019060200180831161114857829003601f168201915b505050505081565b60096020525f908152604090208054819061118790612488565b80601f01602080910402602001604051908101604052809291908181526020018280546111b390612488565b80156111fe5780601f106111d5576101008083540402835291602001916111fe565b820191905f5260205f20905b8154815290600101906020018083116111e157829003601f168201915b5050505050908060010154905082565b6060815183511461123f5781518351604051635b05999160e01b81526004810192909252602482015260440161081d565b5f835167ffffffffffffffff81111561125a5761125a611ee7565b604051908082528060200260200182016040528015611283578160200160208202803683370190505b5090505f5b84518110156112d9576020808202860101516112ac9060208084028701015161073e565b8282815181106112be576112be6125f1565b60209081029190910101526112d281612431565b9050611288565b509392505050565b5f80831561133b5760066112f66001866125de565b6113019060026123ad565b61130c9060016123e3565b856113186001826125de565b61132291906123ad565b61132c91906123ad565b61133691906123c4565b61133d565b5f5b90505f8415801561134e5750836001145b6113c3576006846113606001886125de565b61136a91906123e3565b6113759060026123ad565b6113809060016123e3565b61138a86886123e3565b8661139660018a6125de565b6113a091906123e3565b6113aa91906123ad565b6113b491906123ad565b6113be91906123c4565b6113c5565b5f5b90505f6113d283836125de565b90506106406113e982670de0b6b3a76400006123ad565b610ab991906123c4565b6113fb611840565b6114045f61186c565b565b600c602052815f5260405f20818154811061141f575f80fd5b905f5260205f20015f91509150505481565b5f82815260096020526040812060010154611457906114519084906125de565b836112e1565b9392505050565b6114693383836118bb565b5050565b611475611840565b600555565b5f8281526009602052604081206001015461145790836112e1565b61149d611840565b600655565b5f806114ae8484611431565b90505f600754600554836114c291906123ad565b6114cc91906123c4565b90505f600754600654846114e091906123ad565b6114ea91906123c4565b9050806114f783856125de565b610ab991906125de565b6001600160a01b039182165f90815260026020908152604080832093909416825291909152205460ff1690565b336001600160a01b038616811480159061154f575061154d8682611501565b155b156115805760405163711bec9160e11b81526001600160a01b0380831660048301528716602482015260440161081d565b61106f868686868661194f565b611595611840565b6001600160a01b0381166115be57604051631e4fbdf760e01b81525f600482015260240161081d565b6115c78161186c565b50565b6115d2611840565b600480546001600160a01b0319166001600160a01b0392909216919091179055565b6001600160a01b03841661161d57604051632bfa23e760e11b81525f600482015260240161081d565b6040805160018082526020820186905281830190815260608201859052608082019092529061106f5f878484876119db565b6060815f036116755750506040805180820190915260018152600360fc1b602082015290565b815f5b811561169e578061168881612431565b91506116979050600a836123c4565b9150611678565b5f8167ffffffffffffffff8111156116b8576116b8611ee7565b6040519080825280601f01601f1916602001820160405280156116e2576020820181803683370190505b509050815b851561176c576116f86001826125de565b90505f611706600a886123c4565b61171190600a6123ad565b61171b90886125de565b611726906030612605565b90505f8160f81b905080848481518110611742576117426125f1565b60200101906001600160f81b03191690815f1a905350611763600a896123c4565b975050506116e7565b50949350505050565b6001600160a01b03831661179d57604051626a0d4560e21b81525f600482015260240161081d565b604080516001808252602082018590528183019081526060820184905260a082019092525f608082018181529192916117db918791859085906119db565b5050505050565b6001600160a01b03841661180b57604051632bfa23e760e11b81525f600482015260240161081d565b6001600160a01b03851661183357604051626a0d4560e21b81525f600482015260240161081d565b6117db85858585856119db565b5f546001600160a01b031633146114045760405163118cdaa760e01b815233600482015260240161081d565b5f80546001600160a01b038381166001600160a01b0319831681178455604051919092169283917f8be0079c531659141344cd1fd0a4f28419497f9722a3daafe3b4186f6b6457e09190a35050565b6001600160a01b0382166118e35760405162ced3e160e81b81525f600482015260240161081d565b6001600160a01b038381165f81815260026020908152604080832094871680845294825291829020805460ff191686151590811790915591519182527f17307eab39ab6107e8899845ad3d59bd9653f200f220920489ca2b5937696c31910160405180910390a3505050565b6001600160a01b03841661197857604051632bfa23e760e11b81525f600482015260240161081d565b6001600160a01b0385166119a057604051626a0d4560e21b81525f600482015260240161081d565b604080516001808252602082018690528183019081526060820185905260808201909252906119d287878484876119db565b50505050505050565b6119e785858585611a2e565b6001600160a01b038416156117db5782513390600103611a205760208481015190840151611a19838989858589611c4c565b505061106f565b61106f818787878787611d6d565b8051825114611a5d5781518151604051635b05999160e01b81526004810192909252602482015260440161081d565b335f5b8351811015611b6e576020818102858101820151908501909101516001600160a01b03881615611b15575f8281526001602090815260408083206001600160a01b038c16845290915290205481811015611aed576040516303dee4c560e01b81526001600160a01b038a16600482015260248101829052604481018390526064810184905260840161081d565b5f8381526001602090815260408083206001600160a01b038d16845290915290209082900390555b6001600160a01b03871615611b5b575f8281526001602090815260408083206001600160a01b038b16845290915281208054839290611b559084906123e3565b90915550505b505080611b6790612431565b9050611a60565b508251600103611bee5760208301515f906020840151909150856001600160a01b0316876001600160a01b0316846001600160a01b03167fc3d58168c5ae7397731d063d5bbf3d657854427343f4c083240f7aacaa2d0f628585604051611bdf929190918252602082015260400190565b60405180910390a450506117db565b836001600160a01b0316856001600160a01b0316826001600160a01b03167f4a39dc06d4c0dbc64b70af90fd698a233a518aa5d07e595d983b8c0526c8f7fb8686604051611c3d92919061261e565b60405180910390a45050505050565b6001600160a01b0384163b1561106f5760405163f23a6e6160e01b81526001600160a01b0385169063f23a6e6190611c90908990899088908890889060040161264b565b6020604051808303815f875af1925050508015611cca575060408051601f3d908101601f19168201909252611cc79181019061268f565b60015b611d31573d808015611cf7576040519150601f19603f3d011682016040523d82523d5f602084013e611cfc565b606091505b5080515f03611d2957604051632bfa23e760e11b81526001600160a01b038616600482015260240161081d565b805181602001fd5b6001600160e01b0319811663f23a6e6160e01b146119d257604051632bfa23e760e11b81526001600160a01b038616600482015260240161081d565b6001600160a01b0384163b1561106f5760405163bc197c8160e01b81526001600160a01b0385169063bc197c8190611db190899089908890889088906004016126aa565b6020604051808303815f875af1925050508015611deb575060408051601f3d908101601f19168201909252611de89181019061268f565b60015b611e18573d808015611cf7576040519150601f19603f3d011682016040523d82523d5f602084013e611cfc565b6001600160e01b0319811663bc197c8160e01b146119d257604051632bfa23e760e11b81526001600160a01b038616600482015260240161081d565b80356001600160a01b0381168114611e6a575f80fd5b919050565b5f8060408385031215611e80575f80fd5b611e8983611e54565b946020939093013593505050565b6001600160e01b0319811681146115c7575f80fd5b5f60208284031215611ebc575f80fd5b813561145781611e97565b5f8060408385031215611ed8575f80fd5b50508035926020909101359150565b634e487b7160e01b5f52604160045260245ffd5b604051601f8201601f1916810167ffffffffffffffff81118282101715611f2457611f24611ee7565b604052919050565b5f67ffffffffffffffff831115611f4557611f45611ee7565b611f58601f8401601f1916602001611efb565b9050828152838383011115611f6b575f80fd5b828260208301375f602084830101529392505050565b5f60208284031215611f91575f80fd5b813567ffffffffffffffff811115611fa7575f80fd5b8201601f81018413611fb7575f80fd5b611fc684823560208401611f2c565b949350505050565b5f60208284031215611fde575f80fd5b5035919050565b5f5b83811015611fff578181015183820152602001611fe7565b50505f910152565b5f815180845261201e816020860160208601611fe5565b601f01601f19169290920160200192915050565b602081525f6114576020830184612007565b5f60208284031215612054575f80fd5b61145782611e54565b5f67ffffffffffffffff82111561207657612076611ee7565b5060051b60200190565b5f82601f83011261208f575f80fd5b813560206120a461209f8361205d565b611efb565b82815260059290921b840181019181810190868411156120c2575f80fd5b8286015b848110156120dd57803583529183019183016120c6565b509695505050505050565b5f82601f8301126120f7575f80fd5b61145783833560208501611f2c565b5f805f805f60a0868803121561211a575f80fd5b61212386611e54565b945061213160208701611e54565b9350604086013567ffffffffffffffff8082111561214d575f80fd5b61215989838a01612080565b9450606088013591508082111561216e575f80fd5b61217a89838a01612080565b9350608088013591508082111561218f575f80fd5b5061219c888289016120e8565b9150509295509295909350565b604081525f6121bb6040830185612007565b90508260208301529392505050565b5f80604083850312156121db575f80fd5b823567ffffffffffffffff808211156121f2575f80fd5b818501915085601f830112612205575f80fd5b8135602061221561209f8361205d565b82815260059290921b84018101918181019089841115612233575f80fd5b948201945b838610156122585761224986611e54565b82529482019490820190612238565b9650508601359250508082111561226d575f80fd5b5061227a85828601612080565b9150509250929050565b5f8151808452602080850194508084015f5b838110156122b257815187529582019590820190600101612296565b509495945050505050565b602081525f6114576020830184612284565b5f80604083850312156122e0575f80fd5b6122e983611e54565b9150602083013580151581146122fd575f80fd5b809150509250929050565b5f8060408385031215612319575f80fd5b61232283611e54565b915061233060208401611e54565b90509250929050565b5f805f805f60a0868803121561234d575f80fd5b61235686611e54565b945061236460208701611e54565b93506040860135925060608601359150608086013567ffffffffffffffff81111561238d575f80fd5b61219c888289016120e8565b634e487b7160e01b5f52601160045260245ffd5b808202811582820484141761076157610761612399565b5f826123de57634e487b7160e01b5f52601260045260245ffd5b500490565b8082018082111561076157610761612399565b6001600160a01b03979097168752602087019590955292151560408601526060850191909152608084015260a083015260c082015260e00190565b5f6001820161244257612442612399565b5060010190565b686d657461646174612f60b81b81525f825161246c816009850160208701611fe5565b64173539b7b760d91b6009939091019283015250600e01919050565b600181811c9082168061249c57607f821691505b6020821081036124ba57634e487b7160e01b5f52602260045260245ffd5b50919050565b601f821115612505575f81815260208120601f850160051c810160208610156124e65750805b601f850160051c820191505b8181101561106f578281556001016124f2565b505050565b815167ffffffffffffffff81111561252457612524611ee7565b612538816125328454612488565b846124c0565b602080601f83116001811461256b575f84156125545750858301515b5f19600386901b1c1916600185901b17855561106f565b5f85815260208120601f198616915b828110156125995788860151825594840194600190910190840161257a565b50858210156125b657878501515f19600388901b60f8161c191681555b5050505050600190811b01905550565b828152604060208201525f611fc66040830184612007565b8181038181111561076157610761612399565b634e487b7160e01b5f52603260045260245ffd5b60ff818116838216019081111561076157610761612399565b604081525f6126306040830185612284565b82810360208401526126428185612284565b95945050505050565b6001600160a01b03868116825285166020820152604081018490526060810183905260a0608082018190525f9061268490830184612007565b979650505050505050565b5f6020828403121561269f575f80fd5b815161145781611e97565b6001600160a01b0386811682528516602082015260a0604082018190525f906126d590830186612284565b82810360608401526126e78186612284565b905082810360808401526126fb8185612007565b9897505050505050505056fea26469706673582212205261677c2733735a37ccf97b89641a8947f6bd21c5c71bf9e0faec0e70dbd31a64736f6c63430008140033",
    "sourcePath": "d:/hardhatapp/contracts/Gallery.sol",
    "compiler": {
        "name": "solc",
        "version": "0.8.20+commit.a1b79de6"
    },
    "functionHashes": {
        "MAX_CHARACTERS()": "8660e48e",
        "artistEarnedFees(uint256)": "42ebf67e",
        "artistFeePercent()": "3564f600",
        "artworkOwners(uint256)": "5c60a3ea",
        "artworkPrompts(uint256)": "440bbf51",
        "artworks(uint256)": "4b602673",
        "balanceOf(address,uint256)": "00fdd58e",
        "balanceOfBatch(address[],uint256[])": "4e1273f4",
        "buyToken(uint256,uint256)": "057466ea",
        "feePrecision()": "35ff1e28",
        "getArtistEarnedFees(uint256)": "9a087ac0",
        "getBuyPrice(uint256,uint256)": "c157253d",
        "getBuyPriceAfterFee(uint256,uint256)": "063a741f",
        "getPrice(uint256,uint256)": "5cf4ee91",
        "getProtocolEarnedFees()": "21f92f3e",
        "getSellPrice(uint256,uint256)": "9477d85d",
        "getSellPriceAfterFee(uint256,uint256)": "cd9c7121",
        "getTokenIdCounter()": "dbfd4b98",
        "getTotalEarndFees(address)": "1549ce7b",
        "getUserOwnCounts(address)": "47c60b83",
        "isApprovedForAll(address,address)": "e985e9c5",
        "mintArtwork(string)": "0a7b7be4",
        "owner()": "8da5cb5b",
        "ownerData(address,uint256)": "7b12f7f2",
        "protocolEarnedFees()": "1b37b15b",
        "protocolFeeDestination()": "4ce7957c",
        "protocolFeePercent()": "d6e6eb9f",
        "renounceOwnership()": "715018a6",
        "safeBatchTransferFrom(address,address,uint256[],uint256[],bytes)": "2eb2c2d6",
        "safeTransferFrom(address,address,uint256,uint256,bytes)": "f242432a",
        "sellToken(uint256,uint256)": "1897bcf3",
        "setApprovalForAll(address,bool)": "a22cb465",
        "setArtistFeePercent(uint256)": "c72ee8b9",
        "setFeeDestination(address)": "fbe53234",
        "setProtocolFeePercent(uint256)": "a4983421",
        "supportsInterface(bytes4)": "01ffc9a7",
        "totalEarndFee(address)": "27829f10",
        "transferOwnership(address)": "f2fde38b",
        "uri(uint256)": "0e89341c"
    },
    "gasEstimates": {
        "creation": {
            "codeDepositCost": "2009000",
            "executionCost": "infinite",
            "totalCost": "infinite"
        },
        "external": {
            "MAX_CHARACTERS()": "228",
            "artistEarnedFees(uint256)": "2469",
            "artistFeePercent()": "2395",
            "artworkOwners(uint256)": "2542",
            "artworkPrompts(uint256)": "infinite",
            "artworks(uint256)": "infinite",
            "balanceOf(address,uint256)": "2683",
            "balanceOfBatch(address[],uint256[])": "infinite",
            "buyToken(uint256,uint256)": "infinite",
            "feePrecision()": "2417",
            "getArtistEarnedFees(uint256)": "2535",
            "getBuyPrice(uint256,uint256)": "infinite",
            "getBuyPriceAfterFee(uint256,uint256)": "infinite",
            "getPrice(uint256,uint256)": "infinite",
            "getProtocolEarnedFees()": "2326",
            "getSellPrice(uint256,uint256)": "infinite",
            "getSellPriceAfterFee(uint256,uint256)": "infinite",
            "getTokenIdCounter()": "2324",
            "getTotalEarndFees(address)": "2613",
            "getUserOwnCounts(address)": "2612",
            "isApprovedForAll(address,address)": "infinite",
            "mintArtwork(string)": "infinite",
            "owner()": "2396",
            "ownerData(address,uint256)": "4860",
            "protocolEarnedFees()": "2417",
            "protocolFeeDestination()": "2469",
            "protocolFeePercent()": "2416",
            "renounceOwnership()": "infinite",
            "safeBatchTransferFrom(address,address,uint256[],uint256[],bytes)": "infinite",
            "safeTransferFrom(address,address,uint256,uint256,bytes)": "infinite",
            "sellToken(uint256,uint256)": "infinite",
            "setApprovalForAll(address,bool)": "26789",
            "setArtistFeePercent(uint256)": "24574",
            "setFeeDestination(address)": "26864",
            "setProtocolFeePercent(uint256)": "24530",
            "supportsInterface(bytes4)": "598",
            "totalEarndFee(address)": "2573",
            "transferOwnership(address)": "28439",
            "uri(uint256)": "infinite"
        },
        "internal": {
            "uint2str(uint256)": "infinite"
        }
    }
}